{
  "contractName": "CollectionMarketplace",
  "abi": [
    {
      "inputs": [],
      "stateMutability": "nonpayable",
      "type": "constructor"
    },
    {
      "inputs": [],
      "name": "CollectionHasOwner",
      "type": "error"
    },
    {
      "inputs": [],
      "name": "CollectionIsNotCreated",
      "type": "error"
    },
    {
      "inputs": [],
      "name": "InvalidState",
      "type": "error"
    },
    {
      "inputs": [],
      "name": "OnlyOwner",
      "type": "error"
    },
    {
      "inputs": [],
      "name": "SenderIsNotCollectionOwner",
      "type": "error"
    },
    {
      "inputs": [],
      "name": "isStopped",
      "outputs": [
        {
          "internalType": "bool",
          "name": "",
          "type": "bool"
        }
      ],
      "stateMutability": "view",
      "type": "function",
      "constant": true
    },
    {
      "stateMutability": "payable",
      "type": "receive",
      "payable": true
    },
    {
      "inputs": [
        {
          "internalType": "uint256",
          "name": "amount",
          "type": "uint256"
        }
      ],
      "name": "withdraw",
      "outputs": [],
      "stateMutability": "nonpayable",
      "type": "function"
    },
    {
      "inputs": [],
      "name": "emergencyWithdraw",
      "outputs": [],
      "stateMutability": "nonpayable",
      "type": "function"
    },
    {
      "inputs": [],
      "name": "selfDestruct",
      "outputs": [],
      "stateMutability": "nonpayable",
      "type": "function"
    },
    {
      "inputs": [],
      "name": "stopContract",
      "outputs": [],
      "stateMutability": "nonpayable",
      "type": "function"
    },
    {
      "inputs": [],
      "name": "resumeContract",
      "outputs": [],
      "stateMutability": "nonpayable",
      "type": "function"
    },
    {
      "inputs": [
        {
          "internalType": "bytes32",
          "name": "collectionId",
          "type": "bytes32"
        },
        {
          "internalType": "bytes32",
          "name": "proof",
          "type": "bytes32"
        }
      ],
      "name": "purchaseCollection",
      "outputs": [],
      "stateMutability": "payable",
      "type": "function",
      "payable": true
    },
    {
      "inputs": [
        {
          "internalType": "bytes32",
          "name": "collectionHash",
          "type": "bytes32"
        }
      ],
      "name": "repurchaseCollection",
      "outputs": [],
      "stateMutability": "payable",
      "type": "function",
      "payable": true
    },
    {
      "inputs": [
        {
          "internalType": "bytes32",
          "name": "collectionHash",
          "type": "bytes32"
        }
      ],
      "name": "activateCollection",
      "outputs": [],
      "stateMutability": "nonpayable",
      "type": "function"
    },
    {
      "inputs": [
        {
          "internalType": "bytes32",
          "name": "collectionHash",
          "type": "bytes32"
        }
      ],
      "name": "deactivateCollection",
      "outputs": [],
      "stateMutability": "nonpayable",
      "type": "function"
    },
    {
      "inputs": [
        {
          "internalType": "address",
          "name": "newOwner",
          "type": "address"
        }
      ],
      "name": "transferOwnership",
      "outputs": [],
      "stateMutability": "nonpayable",
      "type": "function"
    },
    {
      "inputs": [],
      "name": "getCollectionCount",
      "outputs": [
        {
          "internalType": "uint256",
          "name": "",
          "type": "uint256"
        }
      ],
      "stateMutability": "view",
      "type": "function",
      "constant": true
    },
    {
      "inputs": [
        {
          "internalType": "uint256",
          "name": "index",
          "type": "uint256"
        }
      ],
      "name": "getCollectionHashAtIndex",
      "outputs": [
        {
          "internalType": "bytes32",
          "name": "",
          "type": "bytes32"
        }
      ],
      "stateMutability": "view",
      "type": "function",
      "constant": true
    },
    {
      "inputs": [
        {
          "internalType": "bytes32",
          "name": "collectionHash",
          "type": "bytes32"
        }
      ],
      "name": "getCollectionByHash",
      "outputs": [
        {
          "components": [
            {
              "internalType": "uint256",
              "name": "id",
              "type": "uint256"
            },
            {
              "internalType": "uint256",
              "name": "price",
              "type": "uint256"
            },
            {
              "internalType": "bytes32",
              "name": "proof",
              "type": "bytes32"
            },
            {
              "internalType": "address",
              "name": "owner",
              "type": "address"
            },
            {
              "internalType": "enum CollectionMarketplace.State",
              "name": "state",
              "type": "uint8"
            }
          ],
          "internalType": "struct CollectionMarketplace.Collection",
          "name": "",
          "type": "tuple"
        }
      ],
      "stateMutability": "view",
      "type": "function",
      "constant": true
    },
    {
      "inputs": [],
      "name": "getContractOwner",
      "outputs": [
        {
          "internalType": "address",
          "name": "",
          "type": "address"
        }
      ],
      "stateMutability": "view",
      "type": "function",
      "constant": true
    }
  ],
  "bytecode": "0x608060405260008060006101000a81548160ff02191690831515021790555034801561002a57600080fd5b5061003a3361003f60201b60201c565b610083565b80600460006101000a81548173ffffffffffffffffffffffffffffffffffffffff021916908373ffffffffffffffffffffffffffffffffffffffff16021790555050565b61197f806100926000396000f3fe6080604052600436106100ec5760003560e01c8063442890d51161008a578063bff250df11610059578063bff250df146102b8578063c4bc5da5146102d4578063db2e21bc146102eb578063f2fde38b14610302576100f3565b8063442890d514610231578063861b63a51461025c5780639cb8a26a14610278578063b41a59bf1461028f576100f3565b80631c10106f116100c65780631c10106f1461018957806328f3fd3b146101b45780632e1a7d4d146101dd5780633f683b6a14610206576100f3565b806312253a6c146100f857806316cc362c1461010f578063185158971461014c576100f3565b366100f357005b600080fd5b34801561010457600080fd5b5061010d61032b565b005b34801561011b57600080fd5b506101366004803603810190610131919061147e565b6103b3565b6040516101439190611695565b60405180910390f35b34801561015857600080fd5b50610173600480360381019061016e9190611419565b6103d0565b60405161018091906116f0565b60405180910390f35b34801561019557600080fd5b5061019e6104f8565b6040516101ab919061170b565b60405180910390f35b3480156101c057600080fd5b506101db60048036038101906101d69190611419565b610502565b005b3480156101e957600080fd5b5061020460048036038101906101ff919061147e565b6106ee565b005b34801561021257600080fd5b5061021b61082c565b604051610228919061167a565b60405180910390f35b34801561023d57600080fd5b5061024661083d565b604051610253919061165f565b60405180910390f35b61027660048036038101906102719190611419565b610867565b005b34801561028457600080fd5b5061028d610a2e565b005b34801561029b57600080fd5b506102b660048036038101906102b19190611419565b610aec565b005b6102d260048036038101906102cd9190611442565b610db7565b005b3480156102e057600080fd5b506102e9610fbc565b005b3480156102f757600080fd5b50610300611044565b005b34801561030e57600080fd5b50610329600480360381019061032491906113f0565b611198565b005b61033361083d565b73ffffffffffffffffffffffffffffffffffffffff163373ffffffffffffffffffffffffffffffffffffffff1614610397576040517f5fc483c500000000000000000000000000000000000000000000000000000000815260040160405180910390fd5b60016000806101000a81548160ff021916908315150217905550565b600060026000838152602001908152602001600020549050919050565b6103d8611331565b600160008381526020019081526020016000206040518060a00160405290816000820154815260200160018201548152602001600282015481526020016003820160009054906101000a900473ffffffffffffffffffffffffffffffffffffffff1673ffffffffffffffffffffffffffffffffffffffff1673ffffffffffffffffffffffffffffffffffffffff1681526020016003820160149054906101000a900460ff1660028111156104b5577f4e487b7100000000000000000000000000000000000000000000000000000000600052602160045260246000fd5b60028111156104ed577f4e487b7100000000000000000000000000000000000000000000000000000000600052602160045260246000fd5b815250509050919050565b6000600354905090565b60008054906101000a900460ff161561051a57600080fd5b61052261083d565b73ffffffffffffffffffffffffffffffffffffffff163373ffffffffffffffffffffffffffffffffffffffff1614610586576040517f5fc483c500000000000000000000000000000000000000000000000000000000815260040160405180910390fd5b61058f81611210565b6105c5576040517f8952f9cc00000000000000000000000000000000000000000000000000000000815260040160405180910390fd5b600060016000838152602001908152602001600020905060006002811115610616577f4e487b7100000000000000000000000000000000000000000000000000000000600052602160045260246000fd5b8160030160149054906101000a900460ff166002811115610660577f4e487b7100000000000000000000000000000000000000000000000000000000600052602160045260246000fd5b14610697576040517fbaf3f0f700000000000000000000000000000000000000000000000000000000815260040160405180910390fd5b60018160030160146101000a81548160ff021916908360028111156106e5577f4e487b7100000000000000000000000000000000000000000000000000000000600052602160045260246000fd5b02179055505050565b6106f661083d565b73ffffffffffffffffffffffffffffffffffffffff163373ffffffffffffffffffffffffffffffffffffffff161461075a576040517f5fc483c500000000000000000000000000000000000000000000000000000000815260040160405180910390fd5b6000600460009054906101000a900473ffffffffffffffffffffffffffffffffffffffff1673ffffffffffffffffffffffffffffffffffffffff16826040516107a29061164a565b60006040518083038185875af1925050503d80600081146107df576040519150601f19603f3d011682016040523d82523d6000602084013e6107e4565b606091505b5050905080610828576040517f08c379a000000000000000000000000000000000000000000000000000000000815260040161081f906116d0565b60405180910390fd5b5050565b60008054906101000a900460ff1681565b6000600460009054906101000a900473ffffffffffffffffffffffffffffffffffffffff16905090565b60008054906101000a900460ff161561087f57600080fd5b61088881611210565b6108be576040517f8952f9cc00000000000000000000000000000000000000000000000000000000815260040160405180910390fd5b6108c78161127f565b6108fd576040517fc94e7bee00000000000000000000000000000000000000000000000000000000815260040160405180910390fd5b600060016000838152602001908152602001600020905060028081111561094d577f4e487b7100000000000000000000000000000000000000000000000000000000600052602160045260246000fd5b8160030160149054906101000a900460ff166002811115610997577f4e487b7100000000000000000000000000000000000000000000000000000000600052602160045260246000fd5b146109ce576040517fbaf3f0f700000000000000000000000000000000000000000000000000000000815260040160405180910390fd5b60008160030160146101000a81548160ff02191690836002811115610a1c577f4e487b7100000000000000000000000000000000000000000000000000000000600052602160045260246000fd5b02179055503481600101819055505050565b60008054906101000a900460ff16610a4557600080fd5b610a4d61083d565b73ffffffffffffffffffffffffffffffffffffffff163373ffffffffffffffffffffffffffffffffffffffff1614610ab1576040517f5fc483c500000000000000000000000000000000000000000000000000000000815260040160405180910390fd5b600460009054906101000a900473ffffffffffffffffffffffffffffffffffffffff1673ffffffffffffffffffffffffffffffffffffffff16ff5b60008054906101000a900460ff1615610b0457600080fd5b610b0c61083d565b73ffffffffffffffffffffffffffffffffffffffff163373ffffffffffffffffffffffffffffffffffffffff1614610b70576040517f5fc483c500000000000000000000000000000000000000000000000000000000815260040160405180910390fd5b610b7981611210565b610baf576040517f8952f9cc00000000000000000000000000000000000000000000000000000000815260040160405180910390fd5b600060016000838152602001908152602001600020905060006002811115610c00577f4e487b7100000000000000000000000000000000000000000000000000000000600052602160045260246000fd5b8160030160149054906101000a900460ff166002811115610c4a577f4e487b7100000000000000000000000000000000000000000000000000000000600052602160045260246000fd5b14610c81576040517fbaf3f0f700000000000000000000000000000000000000000000000000000000815260040160405180910390fd5b60008160030160009054906101000a900473ffffffffffffffffffffffffffffffffffffffff1673ffffffffffffffffffffffffffffffffffffffff168260010154604051610ccf9061164a565b60006040518083038185875af1925050503d8060008114610d0c576040519150601f19603f3d011682016040523d82523d6000602084013e610d11565b606091505b5050905080610d55576040517f08c379a0000000000000000000000000000000000000000000000000000000008152600401610d4c906116b0565b60405180910390fd5b60028260030160146101000a81548160ff02191690836002811115610da3577f4e487b7100000000000000000000000000000000000000000000000000000000600052602160045260246000fd5b021790555060008260010181905550505050565b60008054906101000a900460ff1615610dcf57600080fd5b60008233604051602001610de492919061161e565b604051602081830303815290604052805190602001209050610e058161127f565b15610e3c576040517fc945625600000000000000000000000000000000000000000000000000000000815260040160405180910390fd5b600060036000815480929190610e51906117b9565b9190505590508160026000838152602001908152602001600020819055506040518060a001604052808281526020013481526020018481526020013373ffffffffffffffffffffffffffffffffffffffff16815260200160006002811115610ee2577f4e487b7100000000000000000000000000000000000000000000000000000000600052602160045260246000fd5b8152506001600084815260200190815260200160002060008201518160000155602082015181600101556040820151816002015560608201518160030160006101000a81548173ffffffffffffffffffffffffffffffffffffffff021916908373ffffffffffffffffffffffffffffffffffffffff16021790555060808201518160030160146101000a81548160ff02191690836002811115610fae577f4e487b7100000000000000000000000000000000000000000000000000000000600052602160045260246000fd5b021790555090505050505050565b610fc461083d565b73ffffffffffffffffffffffffffffffffffffffff163373ffffffffffffffffffffffffffffffffffffffff1614611028576040517f5fc483c500000000000000000000000000000000000000000000000000000000815260040160405180910390fd5b60008060006101000a81548160ff021916908315150217905550565b60008054906101000a900460ff1661105b57600080fd5b61106361083d565b73ffffffffffffffffffffffffffffffffffffffff163373ffffffffffffffffffffffffffffffffffffffff16146110c7576040517f5fc483c500000000000000000000000000000000000000000000000000000000815260040160405180910390fd5b6000600460009054906101000a900473ffffffffffffffffffffffffffffffffffffffff1673ffffffffffffffffffffffffffffffffffffffff164760405161110f9061164a565b60006040518083038185875af1925050503d806000811461114c576040519150601f19603f3d011682016040523d82523d6000602084013e611151565b606091505b5050905080611195576040517f08c379a000000000000000000000000000000000000000000000000000000000815260040161118c906116d0565b60405180910390fd5b50565b6111a061083d565b73ffffffffffffffffffffffffffffffffffffffff163373ffffffffffffffffffffffffffffffffffffffff1614611204576040517f5fc483c500000000000000000000000000000000000000000000000000000000815260040160405180910390fd5b61120d816112ed565b50565b60008073ffffffffffffffffffffffffffffffffffffffff166001600084815260200190815260200160002060030160009054906101000a900473ffffffffffffffffffffffffffffffffffffffff1673ffffffffffffffffffffffffffffffffffffffff1614159050919050565b60003373ffffffffffffffffffffffffffffffffffffffff166001600084815260200190815260200160002060030160009054906101000a900473ffffffffffffffffffffffffffffffffffffffff1673ffffffffffffffffffffffffffffffffffffffff16149050919050565b80600460006101000a81548173ffffffffffffffffffffffffffffffffffffffff021916908373ffffffffffffffffffffffffffffffffffffffff16021790555050565b6040518060a00160405280600081526020016000815260200160008019168152602001600073ffffffffffffffffffffffffffffffffffffffff168152602001600060028111156113ab577f4e487b7100000000000000000000000000000000000000000000000000000000600052602160045260246000fd5b81525090565b6000813590506113c081611904565b92915050565b6000813590506113d58161191b565b92915050565b6000813590506113ea81611932565b92915050565b60006020828403121561140257600080fd5b6000611410848285016113b1565b91505092915050565b60006020828403121561142b57600080fd5b6000611439848285016113c6565b91505092915050565b6000806040838503121561145557600080fd5b6000611463858286016113c6565b9250506020611474858286016113c6565b9150509250929050565b60006020828403121561149057600080fd5b600061149e848285016113db565b91505092915050565b6114b081611742565b82525050565b6114bf81611742565b82525050565b6114d66114d182611742565b611802565b82525050565b6114e581611754565b82525050565b6114f481611760565b82525050565b61150381611760565b82525050565b61151a61151582611760565b611814565b82525050565b611529816117a7565b82525050565b600061153c601083611731565b91506115478261189b565b602082019050919050565b600061155f600083611726565b915061156a826118c4565b600082019050919050565b6000611582601083611731565b915061158d826118c7565b602082019050919050565b60a0820160008201516115ae6000850182611600565b5060208201516115c16020850182611600565b5060408201516115d460408501826114eb565b5060608201516115e760608501826114a7565b5060808201516115fa6080850182611520565b50505050565b6116098161179d565b82525050565b6116188161179d565b82525050565b600061162a8285611509565b60208201915061163a82846114c5565b6014820191508190509392505050565b600061165582611552565b9150819050919050565b600060208201905061167460008301846114b6565b92915050565b600060208201905061168f60008301846114dc565b92915050565b60006020820190506116aa60008301846114fa565b92915050565b600060208201905081810360008301526116c98161152f565b9050919050565b600060208201905081810360008301526116e981611575565b9050919050565b600060a0820190506117056000830184611598565b92915050565b6000602082019050611720600083018461160f565b92915050565b600081905092915050565b600082825260208201905092915050565b600061174d8261177d565b9050919050565b60008115159050919050565b6000819050919050565b6000819050611778826118f0565b919050565b600073ffffffffffffffffffffffffffffffffffffffff82169050919050565b6000819050919050565b60006117b28261176a565b9050919050565b60006117c48261179d565b91507fffffffffffffffffffffffffffffffffffffffffffffffffffffffffffffffff8214156117f7576117f6611830565b5b600182019050919050565b600061180d8261181e565b9050919050565b6000819050919050565b60006118298261188e565b9050919050565b7f4e487b7100000000000000000000000000000000000000000000000000000000600052601160045260246000fd5b7f4e487b7100000000000000000000000000000000000000000000000000000000600052602160045260246000fd5b60008160601b9050919050565b7f5472616e73666572206661696c65642100000000000000000000000000000000600082015250565b50565b7f5472616e73666572206661696c65642e00000000000000000000000000000000600082015250565b600381106119015761190061185f565b5b50565b61190d81611742565b811461191857600080fd5b50565b61192481611760565b811461192f57600080fd5b50565b61193b8161179d565b811461194657600080fd5b5056fea264697066735822122070718a31c743afb5a455dd7612e9c23331232f9ce496ab03e4e7bfe46aeaa3c164736f6c63430008040033",
  "immutableReferences": {},
  "source": "// SPDX-License-Identifier: MIT\r\npragma solidity >=0.4.22 <0.9.0;\r\n\r\ncontract CollectionMarketplace {\r\n\r\n  enum State {\r\n    Purchased,\r\n    Activated,\r\n    Deactivated\r\n  }\r\n\r\n  struct Collection {\r\n    uint id; // 32\r\n    uint price; // 32\r\n    bytes32 proof; // 32\r\n    address owner; // 20\r\n    State state; // 1\r\n  }\r\n\r\n  bool public isStopped = false;\r\n\r\n  // mapping of collectionHash to Collection data\r\n  mapping(bytes32 => Collection) private ownedCollections;\r\n\r\n  // mapping of collectionID to collectionHash\r\n  mapping(uint => bytes32) private ownedCollectionHash;\r\n\r\n  // number of all collections + id of the collection\r\n  uint private totalOwnedCollections;\r\n\r\n  address payable private owner;\r\n\r\n  constructor() {\r\n    setContractOwner(msg.sender);\r\n  }\r\n\r\n  /// Collection has invalid state!\r\n  error InvalidState();\r\n\r\n  /// Collection is not created!\r\n  error CollectionIsNotCreated();\r\n\r\n  /// Collection has already a Owner!\r\n  error CollectionHasOwner();\r\n\r\n  /// Sender is not collection owner!\r\n  error SenderIsNotCollectionOwner();\r\n\r\n\r\n  /// Only owner has an access!\r\n  error OnlyOwner();\r\n\r\n  modifier onlyOwner() {\r\n    if (msg.sender != getContractOwner()) {\r\n      revert OnlyOwner();\r\n    }\r\n    _;\r\n  }\r\n\r\n  modifier onlyWhenNotStopped {\r\n    require(!isStopped);\r\n    _;\r\n  }\r\n\r\n  modifier onlyWhenStopped {\r\n    require(isStopped);\r\n    _;\r\n  }\r\n\r\n  receive() external payable {}\r\n\r\n  function withdraw(uint amount)\r\n    external\r\n    onlyOwner\r\n  {\r\n    (bool success, ) = owner.call{value: amount}(\"\");\r\n    require(success, \"Transfer failed.\");\r\n  }\r\n\r\n  function emergencyWithdraw()\r\n    external\r\n    onlyWhenStopped\r\n    onlyOwner\r\n  {\r\n    (bool success, ) = owner.call{value: address(this).balance}(\"\");\r\n    require(success, \"Transfer failed.\");\r\n  }\r\n\r\n  function selfDestruct()\r\n    external\r\n    onlyWhenStopped\r\n    onlyOwner\r\n  {\r\n    selfdestruct(owner);\r\n  }\r\n\r\n  function stopContract()\r\n    external\r\n    onlyOwner\r\n  {\r\n    isStopped = true;\r\n  }\r\n\r\n  function resumeContract()\r\n    external\r\n    onlyOwner\r\n  {\r\n    isStopped = false;\r\n  }\r\n\r\n  function purchaseCollection(\r\n    bytes32 collectionId, // 0x0000000000000000000000000000313000000000000000000000000000000030\r\n    bytes32 proof // 0x0000000000000000000000000000313000000000000000000000000000003130\r\n  )\r\n    external\r\n    payable\r\n    onlyWhenNotStopped\r\n  {\r\n    bytes32 collectionHash = keccak256(abi.encodePacked(collectionId, msg.sender));\r\n\r\n    if (hasCollectionOwnership(collectionHash)) {\r\n      revert CollectionHasOwner();\r\n    }\r\n\r\n    uint id = totalOwnedCollections++;\r\n\r\n    ownedCollectionHash[id] = collectionHash;\r\n    ownedCollections[collectionHash] = Collection({\r\n      id: id,\r\n      price: msg.value,\r\n      proof: proof,\r\n      owner: msg.sender,\r\n      state: State.Purchased\r\n    });\r\n  }\r\n\r\n  function repurchaseCollection(bytes32 collectionHash)\r\n    external\r\n    payable\r\n    onlyWhenNotStopped\r\n  {\r\n    if (!isCollectionCreated(collectionHash)) {\r\n      revert CollectionIsNotCreated();\r\n    }\r\n\r\n    if (!hasCollectionOwnership(collectionHash)) {\r\n      revert SenderIsNotCollectionOwner();\r\n    }\r\n\r\n    Collection storage collection = ownedCollections[collectionHash];\r\n\r\n    if (collection.state != State.Deactivated) {\r\n      revert InvalidState();\r\n    }\r\n\r\n    collection.state = State.Purchased;\r\n    collection.price = msg.value;\r\n  }\r\n\r\n  \r\n  function activateCollection(bytes32 collectionHash)\r\n    external\r\n    onlyWhenNotStopped\r\n    onlyOwner\r\n  {\r\n    if (!isCollectionCreated(collectionHash)) {\r\n      revert CollectionIsNotCreated();\r\n    }\r\n\r\n    Collection storage collection = ownedCollections[collectionHash];\r\n\r\n    if (collection.state != State.Purchased) {\r\n      revert InvalidState();\r\n    }\r\n\r\n    collection.state = State.Activated;\r\n  }\r\n\r\n  function deactivateCollection(bytes32 collectionHash)\r\n    external\r\n    onlyWhenNotStopped\r\n    onlyOwner\r\n  {\r\n    if (!isCollectionCreated(collectionHash)) {\r\n      revert CollectionIsNotCreated();\r\n    }\r\n\r\n    Collection storage collection = ownedCollections[collectionHash];\r\n\r\n    if (collection.state != State.Purchased) {\r\n      revert InvalidState();\r\n    }\r\n\r\n    (bool success, ) = collection.owner.call{value: collection.price}(\"\");\r\n    require(success, \"Transfer failed!\");\r\n\r\n    collection.state = State.Deactivated;\r\n    collection.price = 0;\r\n  }\r\n\r\n  function transferOwnership(address newOwner)\r\n    external\r\n    onlyOwner\r\n  {\r\n    setContractOwner(newOwner);\r\n  }\r\n\r\n  function getCollectionCount()\r\n    external\r\n    view\r\n    returns (uint)\r\n  {\r\n    return totalOwnedCollections;\r\n  }\r\n\r\n  function getCollectionHashAtIndex(uint index)\r\n    external\r\n    view\r\n    returns (bytes32)\r\n  {\r\n    return ownedCollectionHash[index];\r\n  }\r\n\r\n  function getCollectionByHash(bytes32 collectionHash)\r\n    external\r\n    view\r\n    returns (Collection memory)\r\n  {\r\n    return ownedCollections[collectionHash];\r\n  }\r\n\r\n  function getContractOwner()\r\n    public\r\n    view\r\n    returns (address)\r\n  {\r\n    return owner;\r\n  }\r\n\r\n  function setContractOwner(address newOwner) private {\r\n    owner = payable(newOwner);\r\n  }\r\n\r\n  function isCollectionCreated(bytes32 collectionHash)\r\n    private\r\n    view\r\n    returns (bool)\r\n  {\r\n    return ownedCollections[collectionHash].owner != 0x0000000000000000000000000000000000000000;\r\n  }\r\n\r\n  function hasCollectionOwnership(bytes32 collectionHash)\r\n    private\r\n    view\r\n    returns (bool)\r\n  {\r\n    return ownedCollections[collectionHash].owner == msg.sender;\r\n  }\r\n}",
  "sourcePath": "D:\\Projects\\BeatUp\\client\\contracts\\CollectionMarketplace.sol",
  "compiler": {
    "name": "solc",
    "version": "0.8.4+commit.c7e474f2.Emscripten.clang"
  },
  "schemaVersion": "3.4.4",
  "updatedAt": "2022-04-22T15:48:00.713Z",
  "networkType": "ethereum",
  "devdoc": {
    "kind": "dev",
    "methods": {},
    "version": 1
  },
  "userdoc": {
    "errors": {
      "CollectionHasOwner()": [
        {
          "notice": "Collection has already a Owner!"
        }
      ],
      "CollectionIsNotCreated()": [
        {
          "notice": "Collection is not created!"
        }
      ],
      "InvalidState()": [
        {
          "notice": "Collection has invalid state!"
        }
      ],
      "OnlyOwner()": [
        {
          "notice": "Only owner has an access!"
        }
      ],
      "SenderIsNotCollectionOwner()": [
        {
          "notice": "Sender is not collection owner!"
        }
      ]
    },
    "kind": "user",
    "methods": {},
    "version": 1
  }
}